{
  "contractName": "DecentralizedExchange",
  "abi": [
    {
      "inputs": [],
      "stateMutability": "nonpayable",
      "type": "constructor"
    },
    {
      "anonymous": false,
      "inputs": [
        {
          "indexed": false,
          "internalType": "uint256",
          "name": "tradeId",
          "type": "uint256"
        },
        {
          "indexed": false,
          "internalType": "uint256",
          "name": "orderId",
          "type": "uint256"
        },
        {
          "indexed": true,
          "internalType": "bytes32",
          "name": "ticker",
          "type": "bytes32"
        },
        {
          "indexed": true,
          "internalType": "address",
          "name": "trader1",
          "type": "address"
        },
        {
          "indexed": true,
          "internalType": "address",
          "name": "trader2",
          "type": "address"
        },
        {
          "indexed": false,
          "internalType": "uint256",
          "name": "amount",
          "type": "uint256"
        },
        {
          "indexed": false,
          "internalType": "uint256",
          "name": "price",
          "type": "uint256"
        },
        {
          "indexed": false,
          "internalType": "uint256",
          "name": "date",
          "type": "uint256"
        }
      ],
      "name": "NewTrade",
      "type": "event"
    },
    {
      "inputs": [],
      "name": "admin",
      "outputs": [
        {
          "internalType": "address",
          "name": "",
          "type": "address"
        }
      ],
      "stateMutability": "view",
      "type": "function",
      "constant": true
    },
    {
      "inputs": [],
      "name": "nextTradeId",
      "outputs": [
        {
          "internalType": "uint256",
          "name": "",
          "type": "uint256"
        }
      ],
      "stateMutability": "view",
      "type": "function",
      "constant": true
    },
    {
      "inputs": [],
      "name": "nextorderId",
      "outputs": [
        {
          "internalType": "uint256",
          "name": "",
          "type": "uint256"
        }
      ],
      "stateMutability": "view",
      "type": "function",
      "constant": true
    },
    {
      "inputs": [
        {
          "internalType": "bytes32",
          "name": "",
          "type": "bytes32"
        },
        {
          "internalType": "uint256",
          "name": "",
          "type": "uint256"
        },
        {
          "internalType": "uint256",
          "name": "",
          "type": "uint256"
        }
      ],
      "name": "orderBook",
      "outputs": [
        {
          "internalType": "uint256",
          "name": "id",
          "type": "uint256"
        },
        {
          "internalType": "address",
          "name": "trader",
          "type": "address"
        },
        {
          "internalType": "enum DecentralizedExchange.Side",
          "name": "side",
          "type": "uint8"
        },
        {
          "internalType": "bytes32",
          "name": "ticker",
          "type": "bytes32"
        },
        {
          "internalType": "uint256",
          "name": "amount",
          "type": "uint256"
        },
        {
          "internalType": "uint256",
          "name": "filled",
          "type": "uint256"
        },
        {
          "internalType": "uint256",
          "name": "price",
          "type": "uint256"
        },
        {
          "internalType": "uint256",
          "name": "date",
          "type": "uint256"
        }
      ],
      "stateMutability": "view",
      "type": "function",
      "constant": true
    },
    {
      "inputs": [
        {
          "internalType": "uint256",
          "name": "",
          "type": "uint256"
        }
      ],
      "name": "tokenList",
      "outputs": [
        {
          "internalType": "bytes32",
          "name": "",
          "type": "bytes32"
        }
      ],
      "stateMutability": "view",
      "type": "function",
      "constant": true
    },
    {
      "inputs": [
        {
          "internalType": "bytes32",
          "name": "",
          "type": "bytes32"
        }
      ],
      "name": "tokens",
      "outputs": [
        {
          "internalType": "bytes32",
          "name": "ticker",
          "type": "bytes32"
        },
        {
          "internalType": "address",
          "name": "tokenAddress",
          "type": "address"
        }
      ],
      "stateMutability": "view",
      "type": "function",
      "constant": true
    },
    {
      "inputs": [
        {
          "internalType": "address",
          "name": "",
          "type": "address"
        },
        {
          "internalType": "bytes32",
          "name": "",
          "type": "bytes32"
        }
      ],
      "name": "traderBalances",
      "outputs": [
        {
          "internalType": "uint256",
          "name": "",
          "type": "uint256"
        }
      ],
      "stateMutability": "view",
      "type": "function",
      "constant": true
    },
    {
      "inputs": [
        {
          "internalType": "bytes32",
          "name": "ticker",
          "type": "bytes32"
        },
        {
          "internalType": "enum DecentralizedExchange.Side",
          "name": "side",
          "type": "uint8"
        }
      ],
      "name": "getOrders",
      "outputs": [
        {
          "components": [
            {
              "internalType": "uint256",
              "name": "id",
              "type": "uint256"
            },
            {
              "internalType": "address",
              "name": "trader",
              "type": "address"
            },
            {
              "internalType": "enum DecentralizedExchange.Side",
              "name": "side",
              "type": "uint8"
            },
            {
              "internalType": "bytes32",
              "name": "ticker",
              "type": "bytes32"
            },
            {
              "internalType": "uint256",
              "name": "amount",
              "type": "uint256"
            },
            {
              "internalType": "uint256",
              "name": "filled",
              "type": "uint256"
            },
            {
              "internalType": "uint256",
              "name": "price",
              "type": "uint256"
            },
            {
              "internalType": "uint256",
              "name": "date",
              "type": "uint256"
            }
          ],
          "internalType": "struct DecentralizedExchange.Order[]",
          "name": "",
          "type": "tuple[]"
        }
      ],
      "stateMutability": "view",
      "type": "function",
      "constant": true
    },
    {
      "inputs": [],
      "name": "getTokens",
      "outputs": [
        {
          "components": [
            {
              "internalType": "bytes32",
              "name": "ticker",
              "type": "bytes32"
            },
            {
              "internalType": "address",
              "name": "tokenAddress",
              "type": "address"
            }
          ],
          "internalType": "struct DecentralizedExchange.Token[]",
          "name": "",
          "type": "tuple[]"
        }
      ],
      "stateMutability": "view",
      "type": "function",
      "constant": true
    },
    {
      "inputs": [
        {
          "internalType": "bytes32",
          "name": "ticker",
          "type": "bytes32"
        },
        {
          "internalType": "address",
          "name": "tokenAddress",
          "type": "address"
        }
      ],
      "name": "addToken",
      "outputs": [],
      "stateMutability": "nonpayable",
      "type": "function"
    },
    {
      "inputs": [
        {
          "internalType": "uint256",
          "name": "amount",
          "type": "uint256"
        },
        {
          "internalType": "bytes32",
          "name": "ticker",
          "type": "bytes32"
        }
      ],
      "name": "deposit",
      "outputs": [],
      "stateMutability": "nonpayable",
      "type": "function"
    },
    {
      "inputs": [
        {
          "internalType": "uint256",
          "name": "amount",
          "type": "uint256"
        },
        {
          "internalType": "bytes32",
          "name": "ticker",
          "type": "bytes32"
        }
      ],
      "name": "withdraw",
      "outputs": [],
      "stateMutability": "nonpayable",
      "type": "function"
    },
    {
      "inputs": [
        {
          "internalType": "address",
          "name": "recipient",
          "type": "address"
        },
        {
          "internalType": "uint256",
          "name": "amount",
          "type": "uint256"
        },
        {
          "internalType": "bytes32",
          "name": "ticker",
          "type": "bytes32"
        }
      ],
      "name": "faucet",
      "outputs": [],
      "stateMutability": "nonpayable",
      "type": "function"
    },
    {
      "inputs": [
        {
          "internalType": "bytes32",
          "name": "ticker",
          "type": "bytes32"
        },
        {
          "internalType": "uint256",
          "name": "amount",
          "type": "uint256"
        },
        {
          "internalType": "uint256",
          "name": "price",
          "type": "uint256"
        },
        {
          "internalType": "enum DecentralizedExchange.Side",
          "name": "side",
          "type": "uint8"
        }
      ],
      "name": "createLimitOrder",
      "outputs": [],
      "stateMutability": "nonpayable",
      "type": "function"
    },
    {
      "inputs": [
        {
          "internalType": "bytes32",
          "name": "ticker",
          "type": "bytes32"
        },
        {
          "internalType": "uint256",
          "name": "amount",
          "type": "uint256"
        },
        {
          "internalType": "enum DecentralizedExchange.Side",
          "name": "side",
          "type": "uint8"
        }
      ],
      "name": "createMarketOrder",
      "outputs": [],
      "stateMutability": "nonpayable",
      "type": "function"
    }
  ],
  "bytecode": "0x608060405234801561001057600080fd5b5033600460006101000a81548173ffffffffffffffffffffffffffffffffffffffff021916908373ffffffffffffffffffffffffffffffffffffffff1602179055506137f1806100616000396000f3fe608060405234801561001057600080fd5b50600436106100f55760003560e01c80639a3799cb11610097578063aa6ca80811610066578063aa6ca8081461029e578063c9630cb0146102bc578063d9c0c950146102d8578063f851a440146102f4576100f5565b80639a3799cb146102185780639ead722214610234578063a6ad225614610264578063a8d2021a14610282576100f5565b80637f2c6246116100d35780637f2c624614610191578063813ad083146101ad578063904194a3146101cb5780639776aacf146101fc576100f5565b80630bb431b6146100fa57806346e9658b1461013157806372ce957e14610161575b600080fd5b610114600480360381019061010f9190612aad565b610312565b604051610128989796959493929190612bd6565b60405180910390f35b61014b60048036038101906101469190612c79565b6103b1565b6040516101589190612e47565b60405180910390f35b61017b60048036038101906101769190612e95565b610515565b6040516101889190612ed5565b60405180910390f35b6101ab60048036038101906101a69190612ef0565b61053a565b005b6101b561171c565b6040516101c29190612ed5565b60405180910390f35b6101e560048036038101906101e09190612f43565b611722565b6040516101f3929190612f70565b60405180910390f35b61021660048036038101906102119190612f99565b611766565b005b610232600480360381019061022d9190612fd9565b6118b4565b005b61024e6004803603810190610249919061302c565b611ab4565b60405161025b9190613059565b60405180910390f35b61026c611ad8565b6040516102799190612ed5565b60405180910390f35b61029c60048036038101906102979190613074565b611ade565b005b6102a6611d86565b6040516102b39190613192565b60405180910390f35b6102d660048036038101906102d19190613074565b611edf565b005b6102f260048036038101906102ed91906131b4565b6120f6565b005b6102fc6129a1565b604051610309919061321b565b60405180910390f35b6002602052826000526040600020602052816000526040600020818154811061033a57600080fd5b906000526020600020906007020160009250925050508060000154908060010160009054906101000a900473ffffffffffffffffffffffffffffffffffffffff16908060010160149054906101000a900460ff16908060020154908060030154908060040154908060050154908060060154905088565b60606002600084815260200190815260200160002060008360018111156103db576103da612b50565b5b8152602001908152602001600020805480602002602001604051908101604052809291908181526020016000905b82821015610509578382906000526020600020906007020160405180610100016040529081600082015481526020016001820160009054906101000a900473ffffffffffffffffffffffffffffffffffffffff1673ffffffffffffffffffffffffffffffffffffffff1673ffffffffffffffffffffffffffffffffffffffff1681526020016001820160149054906101000a900460ff1660018111156104b2576104b1612b50565b5b60018111156104c4576104c3612b50565b5b81526020016002820154815260200160038201548152602001600482015481526020016005820154815260200160068201548152505081526020019060010190610409565b50505050905092915050565b6001602052816000526040600020602052806000526040600020600091509150505481565b82600073ffffffffffffffffffffffffffffffffffffffff1660008083815260200190815260200160002060010160009054906101000a900473ffffffffffffffffffffffffffffffffffffffff1673ffffffffffffffffffffffffffffffffffffffff16036105df576040517f08c379a00000000000000000000000000000000000000000000000000000000081526004016105d690613293565b60405180910390fd5b837f464e5800000000000000000000000000000000000000000000000000000000008103610642576040517f08c379a0000000000000000000000000000000000000000000000000000000008152600401610639906132ff565b60405180910390fd5b60018081111561065557610654612b50565b5b83600181111561066857610667612b50565b5b036107015783600160003373ffffffffffffffffffffffffffffffffffffffff1673ffffffffffffffffffffffffffffffffffffffff1681526020019081526020016000206000878152602001908152602001600020541015610700576040517f08c379a00000000000000000000000000000000000000000000000000000000081526004016106f79061336b565b60405180910390fd5b5b600060026000878152602001908152602001600020600080600181111561072b5761072a612b50565b5b86600181111561073e5761073d612b50565b5b1461074a57600061074d565b60015b600181111561075f5761075e612b50565b5b815260200190815260200160002090506000808690505b8280549050821080156107895750600081115b1561149b5760006107eb8484815481106107a6576107a561338b565b5b9060005260206000209060070201600401548585815481106107cb576107ca61338b565b5b9060005260206000209060070201600301546129c790919063ffffffff16565b905060008183116107fc57826107fe565b815b905061081381846129c790919063ffffffff16565b925061084c8186868154811061082c5761082b61338b565b5b9060005260206000209060070201600401546129dd90919063ffffffff16565b85858154811061085f5761085e61338b565b5b9060005260206000209060070201600401819055503373ffffffffffffffffffffffffffffffffffffffff1685858154811061089e5761089d61338b565b5b906000526020600020906007020160010160009054906101000a900473ffffffffffffffffffffffffffffffffffffffff1673ffffffffffffffffffffffffffffffffffffffff168b7fdb0c486e680ba8026643e6a85f8d157b5e7bcd4b32b54d564542570a9eb2041660065489898154811061091e5761091d61338b565b5b906000526020600020906007020160000154868b8b815481106109445761094361338b565b5b906000526020600020906007020160050154426040516109689594939291906133ba565b60405180910390a460018081111561098357610982612b50565b5b88600181111561099657610995612b50565b5b03610e74576109fe81600160003373ffffffffffffffffffffffffffffffffffffffff1673ffffffffffffffffffffffffffffffffffffffff16815260200190815260200160002060008d8152602001908152602001600020546129c790919063ffffffff16565b600160003373ffffffffffffffffffffffffffffffffffffffff1673ffffffffffffffffffffffffffffffffffffffff16815260200190815260200160002060008c815260200190815260200160002081905550610b0b610a8c868681548110610a6b57610a6a61338b565b5b906000526020600020906007020160050154836129f390919063ffffffff16565b600160003373ffffffffffffffffffffffffffffffffffffffff1673ffffffffffffffffffffffffffffffffffffffff16815260200190815260200160002060007f464e5800000000000000000000000000000000000000000000000000000000008152602001908152602001600020546129dd90919063ffffffff16565b600160003373ffffffffffffffffffffffffffffffffffffffff1673ffffffffffffffffffffffffffffffffffffffff16815260200190815260200160002060007f464e580000000000000000000000000000000000000000000000000000000000815260200190815260200160002081905550610c268160016000888881548110610b9a57610b9961338b565b5b906000526020600020906007020160010160009054906101000a900473ffffffffffffffffffffffffffffffffffffffff1673ffffffffffffffffffffffffffffffffffffffff1673ffffffffffffffffffffffffffffffffffffffff16815260200190815260200160002060008d8152602001908152602001600020546129dd90919063ffffffff16565b60016000878781548110610c3d57610c3c61338b565b5b906000526020600020906007020160010160009054906101000a900473ffffffffffffffffffffffffffffffffffffffff1673ffffffffffffffffffffffffffffffffffffffff1673ffffffffffffffffffffffffffffffffffffffff16815260200190815260200160002060008c815260200190815260200160002081905550610dbb610cf8868681548110610cd757610cd661338b565b5b906000526020600020906007020160050154836129f390919063ffffffff16565b60016000888881548110610d0f57610d0e61338b565b5b906000526020600020906007020160010160009054906101000a900473ffffffffffffffffffffffffffffffffffffffff1673ffffffffffffffffffffffffffffffffffffffff1673ffffffffffffffffffffffffffffffffffffffff16815260200190815260200160002060007f464e5800000000000000000000000000000000000000000000000000000000008152602001908152602001600020546129c790919063ffffffff16565b60016000878781548110610dd257610dd161338b565b5b906000526020600020906007020160010160009054906101000a900473ffffffffffffffffffffffffffffffffffffffff1673ffffffffffffffffffffffffffffffffffffffff1673ffffffffffffffffffffffffffffffffffffffff16815260200190815260200160002060007f464e5800000000000000000000000000000000000000000000000000000000008152602001908152602001600020819055505b60006001811115610e8857610e87612b50565b5b886001811115610e9b57610e9a612b50565b5b0361146257610ed7858581548110610eb657610eb561338b565b5b906000526020600020906007020160050154826129f390919063ffffffff16565b600160003373ffffffffffffffffffffffffffffffffffffffff1673ffffffffffffffffffffffffffffffffffffffff16815260200190815260200160002060007f464e5800000000000000000000000000000000000000000000000000000000008152602001908152602001600020541015610f89576040517f08c379a0000000000000000000000000000000000000000000000000000000008152600401610f8090613459565b60405180910390fd5b610fec81600160003373ffffffffffffffffffffffffffffffffffffffff1673ffffffffffffffffffffffffffffffffffffffff16815260200190815260200160002060008d8152602001908152602001600020546129dd90919063ffffffff16565b600160003373ffffffffffffffffffffffffffffffffffffffff1673ffffffffffffffffffffffffffffffffffffffff16815260200190815260200160002060008c8152602001908152602001600020819055506110f961107a8686815481106110595761105861338b565b5b906000526020600020906007020160050154836129f390919063ffffffff16565b600160003373ffffffffffffffffffffffffffffffffffffffff1673ffffffffffffffffffffffffffffffffffffffff16815260200190815260200160002060007f464e5800000000000000000000000000000000000000000000000000000000008152602001908152602001600020546129c790919063ffffffff16565b600160003373ffffffffffffffffffffffffffffffffffffffff1673ffffffffffffffffffffffffffffffffffffffff16815260200190815260200160002060007f464e58000000000000000000000000000000000000000000000000000000000081526020019081526020016000208190555061121481600160008888815481106111885761118761338b565b5b906000526020600020906007020160010160009054906101000a900473ffffffffffffffffffffffffffffffffffffffff1673ffffffffffffffffffffffffffffffffffffffff1673ffffffffffffffffffffffffffffffffffffffff16815260200190815260200160002060008d8152602001908152602001600020546129c790919063ffffffff16565b6001600087878154811061122b5761122a61338b565b5b906000526020600020906007020160010160009054906101000a900473ffffffffffffffffffffffffffffffffffffffff1673ffffffffffffffffffffffffffffffffffffffff1673ffffffffffffffffffffffffffffffffffffffff16815260200190815260200160002060008c8152602001908152602001600020819055506113a96112e68686815481106112c5576112c461338b565b5b906000526020600020906007020160050154836129f390919063ffffffff16565b600160008888815481106112fd576112fc61338b565b5b906000526020600020906007020160010160009054906101000a900473ffffffffffffffffffffffffffffffffffffffff1673ffffffffffffffffffffffffffffffffffffffff1673ffffffffffffffffffffffffffffffffffffffff16815260200190815260200160002060007f464e5800000000000000000000000000000000000000000000000000000000008152602001908152602001600020546129dd90919063ffffffff16565b600160008787815481106113c0576113bf61338b565b5b906000526020600020906007020160010160009054906101000a900473ffffffffffffffffffffffffffffffffffffffff1673ffffffffffffffffffffffffffffffffffffffff1673ffffffffffffffffffffffffffffffffffffffff16815260200190815260200160002060007f464e5800000000000000000000000000000000000000000000000000000000008152602001908152602001600020819055505b61147860016006546129dd90919063ffffffff16565b6006819055506114926001856129dd90919063ffffffff16565b93505050610776565b600091505b8280549050821080156114fa57508282815481106114c1576114c061338b565b5b9060005260206000209060070201600301548383815481106114e6576114e561338b565b5b906000526020600020906007020160040154145b156117125760008290505b6001848054905061151691906134a8565b811015611661578360018261152b91906134dc565b8154811061153c5761153b61338b565b5b906000526020600020906007020184828154811061155d5761155c61338b565b5b9060005260206000209060070201600082015481600001556001820160009054906101000a900473ffffffffffffffffffffffffffffffffffffffff168160010160006101000a81548173ffffffffffffffffffffffffffffffffffffffff021916908373ffffffffffffffffffffffffffffffffffffffff1602179055506001820160149054906101000a900460ff168160010160146101000a81548160ff0219169083600181111561161457611613612b50565b5b02179055506002820154816002015560038201548160030155600482015481600401556005820154816005015560068201548160060155905050808061165990613510565b915050611505565b508280548061167357611672613558565b5b60019003818190600052602060002090600702016000808201600090556001820160006101000a81549073ffffffffffffffffffffffffffffffffffffffff02191690556001820160146101000a81549060ff0219169055600282016000905560038201600090556004820160009055600582016000905560068201600090555050905561170b6001836129dd90919063ffffffff16565b91506114a0565b5050505050505050565b60065481565b60006020528060005260406000206000915090508060000154908060010160009054906101000a900473ffffffffffffffffffffffffffffffffffffffff16905082565b600460009054906101000a900473ffffffffffffffffffffffffffffffffffffffff1673ffffffffffffffffffffffffffffffffffffffff163373ffffffffffffffffffffffffffffffffffffffff16146117f6576040517f08c379a00000000000000000000000000000000000000000000000000000000081526004016117ed906135d3565b60405180910390fd5b60405180604001604052808381526020018273ffffffffffffffffffffffffffffffffffffffff168152506000808481526020019081526020016000206000820151816000015560208201518160010160006101000a81548173ffffffffffffffffffffffffffffffffffffffff021916908373ffffffffffffffffffffffffffffffffffffffff16021790555090505060038290806001815401808255809150506001900390600052602060002001600090919091909150555050565b600460009054906101000a900473ffffffffffffffffffffffffffffffffffffffff1673ffffffffffffffffffffffffffffffffffffffff163373ffffffffffffffffffffffffffffffffffffffff1614611944576040517f08c379a000000000000000000000000000000000000000000000000000000000815260040161193b906135d3565b60405180910390fd5b60008082815260200190815260200160002060010160009054906101000a900473ffffffffffffffffffffffffffffffffffffffff1673ffffffffffffffffffffffffffffffffffffffff1663a9059cbb84846040518363ffffffff1660e01b81526004016119b49291906135f3565b6020604051808303816000875af11580156119d3573d6000803e3d6000fd5b505050506040513d601f19601f820116820180604052508101906119f79190613654565b50611a5b82600160008673ffffffffffffffffffffffffffffffffffffffff1673ffffffffffffffffffffffffffffffffffffffff1681526020019081526020016000206000848152602001908152602001600020546129dd90919063ffffffff16565b600160008573ffffffffffffffffffffffffffffffffffffffff1673ffffffffffffffffffffffffffffffffffffffff168152602001908152602001600020600083815260200190815260200160002081905550505050565b60038181548110611ac457600080fd5b906000526020600020016000915090505481565b60055481565b80600073ffffffffffffffffffffffffffffffffffffffff1660008083815260200190815260200160002060010160009054906101000a900473ffffffffffffffffffffffffffffffffffffffff1673ffffffffffffffffffffffffffffffffffffffff1603611b83576040517f08c379a0000000000000000000000000000000000000000000000000000000008152600401611b7a90613293565b60405180910390fd5b82600160003373ffffffffffffffffffffffffffffffffffffffff1673ffffffffffffffffffffffffffffffffffffffff1681526020019081526020016000206000848152602001908152602001600020541015611c16576040517f08c379a0000000000000000000000000000000000000000000000000000000008152600401611c0d906136f3565b60405180910390fd5b611c7983600160003373ffffffffffffffffffffffffffffffffffffffff1673ffffffffffffffffffffffffffffffffffffffff1681526020019081526020016000206000858152602001908152602001600020546129c790919063ffffffff16565b600160003373ffffffffffffffffffffffffffffffffffffffff1673ffffffffffffffffffffffffffffffffffffffff16815260200190815260200160002060008481526020019081526020016000208190555060008083815260200190815260200160002060010160009054906101000a900473ffffffffffffffffffffffffffffffffffffffff1673ffffffffffffffffffffffffffffffffffffffff1663a9059cbb33856040518363ffffffff1660e01b8152600401611d3d9291906135f3565b6020604051808303816000875af1158015611d5c573d6000803e3d6000fd5b505050506040513d601f19601f82011682018060405250810190611d809190613654565b50505050565b6060600060038054905067ffffffffffffffff811115611da957611da8613713565b5b604051908082528060200260200182016040528015611de257816020015b611dcf612a09565b815260200190600190039081611dc75790505b50905060005b600380549050811015611ed757604051806040016040528060008060038581548110611e1757611e1661338b565b5b9060005260206000200154815260200190815260200160002060000154815260200160008060038581548110611e5057611e4f61338b565b5b9060005260206000200154815260200190815260200160002060010160009054906101000a900473ffffffffffffffffffffffffffffffffffffffff1673ffffffffffffffffffffffffffffffffffffffff16815250828281518110611eb957611eb861338b565b5b60200260200101819052508080611ecf90613510565b915050611de8565b508091505090565b80600073ffffffffffffffffffffffffffffffffffffffff1660008083815260200190815260200160002060010160009054906101000a900473ffffffffffffffffffffffffffffffffffffffff1673ffffffffffffffffffffffffffffffffffffffff1603611f84576040517f08c379a0000000000000000000000000000000000000000000000000000000008152600401611f7b90613293565b60405180910390fd5b60008083815260200190815260200160002060010160009054906101000a900473ffffffffffffffffffffffffffffffffffffffff1673ffffffffffffffffffffffffffffffffffffffff166323b872dd3330866040518463ffffffff1660e01b8152600401611ff693929190613742565b6020604051808303816000875af1158015612015573d6000803e3d6000fd5b505050506040513d601f19601f820116820180604052508101906120399190613654565b5061209d83600160003373ffffffffffffffffffffffffffffffffffffffff1673ffffffffffffffffffffffffffffffffffffffff1681526020019081526020016000206000858152602001908152602001600020546129dd90919063ffffffff16565b600160003373ffffffffffffffffffffffffffffffffffffffff1673ffffffffffffffffffffffffffffffffffffffff168152602001908152602001600020600084815260200190815260200160002081905550505050565b83600073ffffffffffffffffffffffffffffffffffffffff1660008083815260200190815260200160002060010160009054906101000a900473ffffffffffffffffffffffffffffffffffffffff1673ffffffffffffffffffffffffffffffffffffffff160361219b576040517f08c379a000000000000000000000000000000000000000000000000000000000815260040161219290613293565b60405180910390fd5b847f464e58000000000000000000000000000000000000000000000000000000000081036121fe576040517f08c379a00000000000000000000000000000000000000000000000000000000081526004016121f5906132ff565b60405180910390fd5b60018081111561221157612210612b50565b5b83600181111561222457612223612b50565b5b036122c15784600160003373ffffffffffffffffffffffffffffffffffffffff1673ffffffffffffffffffffffffffffffffffffffff16815260200190815260200160002060008881526020019081526020016000205410156122bc576040517f08c379a00000000000000000000000000000000000000000000000000000000081526004016122b39061336b565b60405180910390fd5b612387565b6122d484866129f390919063ffffffff16565b600160003373ffffffffffffffffffffffffffffffffffffffff1673ffffffffffffffffffffffffffffffffffffffff16815260200190815260200160002060007f464e5800000000000000000000000000000000000000000000000000000000008152602001908152602001600020541015612386576040517f08c379a000000000000000000000000000000000000000000000000000000000815260040161237d90613459565b60405180910390fd5b5b60006002600088815260200190815260200160002060008560018111156123b1576123b0612b50565b5b815260200190815260200160002090508060405180610100016040528060055481526020013373ffffffffffffffffffffffffffffffffffffffff16815260200186600181111561240557612404612b50565b5b8152602001898152602001888152602001600081526020018781526020014281525090806001815401808255809150506001900390600052602060002090600702016000909190919091506000820151816000015560208201518160010160006101000a81548173ffffffffffffffffffffffffffffffffffffffff021916908373ffffffffffffffffffffffffffffffffffffffff16021790555060408201518160010160146101000a81548160ff021916908360018111156124cc576124cb612b50565b5b0217905550606082015181600201556080820151816003015560a0820151816004015560c0820151816005015560e08201518160060155505060008082805490501161251957600061252b565b6001828054905061252a91906134a8565b5b90505b600081111561297b576000600181111561254b5761254a612b50565b5b85600181111561255e5761255d612b50565b5b1480156125be57508181815481106125795761257861338b565b5b9060005260206000209060070201600501548260018361259991906134a8565b815481106125aa576125a961338b565b5b906000526020600020906007020160050154115b61297b576001808111156125d5576125d4612b50565b5b8560018111156125e8576125e7612b50565b5b14801561264857508181815481106126035761260261338b565b5b9060005260206000209060070201600501548260018361262391906134a8565b815481106126345761263361338b565b5b906000526020600020906007020160050154105b61297b5760008260018361265c91906134a8565b8154811061266d5761266c61338b565b5b906000526020600020906007020160405180610100016040529081600082015481526020016001820160009054906101000a900473ffffffffffffffffffffffffffffffffffffffff1673ffffffffffffffffffffffffffffffffffffffff1673ffffffffffffffffffffffffffffffffffffffff1681526020016001820160149054906101000a900460ff16600181111561270c5761270b612b50565b5b600181111561271e5761271d612b50565b5b81526020016002820154815260200160038201548152602001600482015481526020016005820154815260200160068201548152505090508282815481106127695761276861338b565b5b90600052602060002090600702018360018461278591906134a8565b815481106127965761279561338b565b5b9060005260206000209060070201600082015481600001556001820160009054906101000a900473ffffffffffffffffffffffffffffffffffffffff168160010160006101000a81548173ffffffffffffffffffffffffffffffffffffffff021916908373ffffffffffffffffffffffffffffffffffffffff1602179055506001820160149054906101000a900460ff168160010160146101000a81548160ff0219169083600181111561284d5761284c612b50565b5b021790555060028201548160020155600382015481600301556004820154816004015560058201548160050155600682015481600601559050508083838154811061289b5761289a61338b565b5b90600052602060002090600702016000820151816000015560208201518160010160006101000a81548173ffffffffffffffffffffffffffffffffffffffff021916908373ffffffffffffffffffffffffffffffffffffffff16021790555060408201518160010160146101000a81548160ff0219169083600181111561292557612924612b50565b5b0217905550606082015181600201556080820151816003015560a0820151816004015560c0820151816005015560e082015181600601559050506129736001836129c790919063ffffffff16565b91505061252e565b61299160016005546129dd90919063ffffffff16565b6005819055505050505050505050565b600460009054906101000a900473ffffffffffffffffffffffffffffffffffffffff1681565b600081836129d591906134a8565b905092915050565b600081836129eb91906134dc565b905092915050565b60008183612a019190613779565b905092915050565b604051806040016040528060008019168152602001600073ffffffffffffffffffffffffffffffffffffffff1681525090565b600080fd5b6000819050919050565b612a5481612a41565b8114612a5f57600080fd5b50565b600081359050612a7181612a4b565b92915050565b6000819050919050565b612a8a81612a77565b8114612a9557600080fd5b50565b600081359050612aa781612a81565b92915050565b600080600060608486031215612ac657612ac5612a3c565b5b6000612ad486828701612a62565b9350506020612ae586828701612a98565b9250506040612af686828701612a98565b9150509250925092565b612b0981612a77565b82525050565b600073ffffffffffffffffffffffffffffffffffffffff82169050919050565b6000612b3a82612b0f565b9050919050565b612b4a81612b2f565b82525050565b7f4e487b7100000000000000000000000000000000000000000000000000000000600052602160045260246000fd5b60028110612b9057612b8f612b50565b5b50565b6000819050612ba182612b7f565b919050565b6000612bb182612b93565b9050919050565b612bc181612ba6565b82525050565b612bd081612a41565b82525050565b600061010082019050612bec600083018b612b00565b612bf9602083018a612b41565b612c066040830189612bb8565b612c136060830188612bc7565b612c206080830187612b00565b612c2d60a0830186612b00565b612c3a60c0830185612b00565b612c4760e0830184612b00565b9998505050505050505050565b60028110612c6157600080fd5b50565b600081359050612c7381612c54565b92915050565b60008060408385031215612c9057612c8f612a3c565b5b6000612c9e85828601612a62565b9250506020612caf85828601612c64565b9150509250929050565b600081519050919050565b600082825260208201905092915050565b6000819050602082019050919050565b612cee81612a77565b82525050565b612cfd81612b2f565b82525050565b612d0c81612ba6565b82525050565b612d1b81612a41565b82525050565b61010082016000820151612d386000850182612ce5565b506020820151612d4b6020850182612cf4565b506040820151612d5e6040850182612d03565b506060820151612d716060850182612d12565b506080820151612d846080850182612ce5565b5060a0820151612d9760a0850182612ce5565b5060c0820151612daa60c0850182612ce5565b5060e0820151612dbd60e0850182612ce5565b50505050565b6000612dcf8383612d21565b6101008301905092915050565b6000602082019050919050565b6000612df482612cb9565b612dfe8185612cc4565b9350612e0983612cd5565b8060005b83811015612e3a578151612e218882612dc3565b9750612e2c83612ddc565b925050600181019050612e0d565b5085935050505092915050565b60006020820190508181036000830152612e618184612de9565b905092915050565b612e7281612b2f565b8114612e7d57600080fd5b50565b600081359050612e8f81612e69565b92915050565b60008060408385031215612eac57612eab612a3c565b5b6000612eba85828601612e80565b9250506020612ecb85828601612a62565b9150509250929050565b6000602082019050612eea6000830184612b00565b92915050565b600080600060608486031215612f0957612f08612a3c565b5b6000612f1786828701612a62565b9350506020612f2886828701612a98565b9250506040612f3986828701612c64565b9150509250925092565b600060208284031215612f5957612f58612a3c565b5b6000612f6784828501612a62565b91505092915050565b6000604082019050612f856000830185612bc7565b612f926020830184612b41565b9392505050565b60008060408385031215612fb057612faf612a3c565b5b6000612fbe85828601612a62565b9250506020612fcf85828601612e80565b9150509250929050565b600080600060608486031215612ff257612ff1612a3c565b5b600061300086828701612e80565b935050602061301186828701612a98565b925050604061302286828701612a62565b9150509250925092565b60006020828403121561304257613041612a3c565b5b600061305084828501612a98565b91505092915050565b600060208201905061306e6000830184612bc7565b92915050565b6000806040838503121561308b5761308a612a3c565b5b600061309985828601612a98565b92505060206130aa85828601612a62565b9150509250929050565b600081519050919050565b600082825260208201905092915050565b6000819050602082019050919050565b6040820160008201516130f66000850182612d12565b5060208201516131096020850182612cf4565b50505050565b600061311b83836130e0565b60408301905092915050565b6000602082019050919050565b600061313f826130b4565b61314981856130bf565b9350613154836130d0565b8060005b8381101561318557815161316c888261310f565b975061317783613127565b925050600181019050613158565b5085935050505092915050565b600060208201905081810360008301526131ac8184613134565b905092915050565b600080600080608085870312156131ce576131cd612a3c565b5b60006131dc87828801612a62565b94505060206131ed87828801612a98565b93505060406131fe87828801612a98565b925050606061320f87828801612c64565b91505092959194509250565b60006020820190506132306000830184612b41565b92915050565b600082825260208201905092915050565b7f5468697320746f6b656e20646f65736e27742065786973742e00000000000000600082015250565b600061327d601983613236565b915061328882613247565b602082019050919050565b600060208201905081810360008301526132ac81613270565b9050919050565b7f43616e6e6f7420747261646520464e582e000000000000000000000000000000600082015250565b60006132e9601183613236565b91506132f4826132b3565b602082019050919050565b60006020820190508181036000830152613318816132dc565b9050919050565b7f546f6b656e2062616c616e636520697320746f6f206c6f772e00000000000000600082015250565b6000613355601983613236565b91506133608261331f565b602082019050919050565b6000602082019050818103600083015261338481613348565b9050919050565b7f4e487b7100000000000000000000000000000000000000000000000000000000600052603260045260246000fd5b600060a0820190506133cf6000830188612b00565b6133dc6020830187612b00565b6133e96040830186612b00565b6133f66060830185612b00565b6134036080830184612b00565b9695505050505050565b7f464e582062616c616e636520697320746f6f206c6f772e000000000000000000600082015250565b6000613443601783613236565b915061344e8261340d565b602082019050919050565b6000602082019050818103600083015261347281613436565b9050919050565b7f4e487b7100000000000000000000000000000000000000000000000000000000600052601160045260246000fd5b60006134b382612a77565b91506134be83612a77565b92508282039050818111156134d6576134d5613479565b5b92915050565b60006134e782612a77565b91506134f283612a77565b925082820190508082111561350a57613509613479565b5b92915050565b600061351b82612a77565b91507fffffffffffffffffffffffffffffffffffffffffffffffffffffffffffffffff820361354d5761354c613479565b5b600182019050919050565b7f4e487b7100000000000000000000000000000000000000000000000000000000600052603160045260246000fd5b7f4f6e6c792041646d696e6973747261746f7220697320616c6c6f7765642e0000600082015250565b60006135bd601e83613236565b91506135c882613587565b602082019050919050565b600060208201905081810360008301526135ec816135b0565b9050919050565b60006040820190506136086000830185612b41565b6136156020830184612b00565b9392505050565b60008115159050919050565b6136318161361c565b811461363c57600080fd5b50565b60008151905061364e81613628565b92915050565b60006020828403121561366a57613669612a3c565b5b60006136788482850161363f565b91505092915050565b7f42616c616e63652069736e277420656e6f75676820746f20776974686472617760008201527f20746f6b656e732e000000000000000000000000000000000000000000000000602082015250565b60006136dd602883613236565b91506136e882613681565b604082019050919050565b6000602082019050818103600083015261370c816136d0565b9050919050565b7f4e487b7100000000000000000000000000000000000000000000000000000000600052604160045260246000fd5b60006060820190506137576000830186612b41565b6137646020830185612b41565b6137716040830184612b00565b949350505050565b600061378482612a77565b915061378f83612a77565b925082820261379d81612a77565b915082820484148315176137b4576137b3613479565b5b509291505056fea264697066735822122076bcf3c4842a4bbc82a4ceaed758786cb13551bad809ad12c73ae3a8fa14728064736f6c63430008120033",
  "immutableReferences": {},
  "source": "// SPDX-License-Identifier: MIT\r\npragma solidity ^0.8.18;\r\n\r\nimport \"./SafeMath.sol\";\r\nimport \"./IERC20.sol\";\r\n\r\ncontract DecentralizedExchange {\r\n\r\n    using SafeMath for uint256;\r\n\r\n    enum Side { \r\n        BUY,\r\n        SELL \r\n    }\r\n\r\n    struct Token {\r\n        bytes32 ticker;\r\n        address tokenAddress;\r\n    }\r\n\r\n    struct Order {\r\n        uint256 id;\r\n        address trader;\r\n        Side side;\r\n        bytes32 ticker;\r\n        uint256 amount;\r\n        uint256 filled;\r\n        uint256 price;\r\n        uint256 date;\r\n    }\r\n\r\n    mapping(bytes32 => Token) public tokens;\r\n    mapping(address => mapping(bytes32 => uint256)) public traderBalances;\r\n    mapping(bytes32 => mapping(uint256 => Order[])) public orderBook;\r\n   \r\n    bytes32[] public tokenList;\r\n    address public admin;\r\n    uint256 public nextorderId;\r\n    uint256 public nextTradeId;\r\n    bytes32 constant FNX = bytes32(\"FNX\");\r\n\r\n    event NewTrade(\r\n        uint256 tradeId,\r\n        uint256 orderId,\r\n        bytes32 indexed ticker,\r\n        address indexed trader1,\r\n        address indexed trader2,\r\n        uint256 amount,\r\n        uint256 price,\r\n        uint256 date\r\n    );\r\n\r\n    constructor() {\r\n        admin = msg.sender;\r\n    }\r\n\r\n    modifier onlyAdmin() {\r\n        require(msg.sender == admin, \"Only Administrator is allowed.\");\r\n        _;\r\n    }\r\n    \r\n    modifier tokenIsNotFNX(bytes32 ticker) {\r\n        require(ticker != FNX, \"Cannot trade FNX.\");\r\n        _;\r\n    }\r\n\r\n    modifier tokenExist(bytes32 ticker) {\r\n        require(tokens[ticker].tokenAddress != address(0),\"This token doesn't exist.\");\r\n        _;\r\n    }\r\n\r\n    function getOrders(bytes32 ticker, Side side) external view returns(Order[] memory) {\r\n      return orderBook[ticker][uint(side)];\r\n    }\r\n\r\n    function getTokens() external view returns(Token[] memory) {\r\n      Token[] memory _tokens = new Token[](tokenList.length);\r\n      for (uint i = 0; i < tokenList.length; i++) {\r\n        _tokens[i] = Token(\r\n          tokens[tokenList[i]].ticker,\r\n          tokens[tokenList[i]].tokenAddress\r\n        );\r\n      }\r\n      return _tokens;\r\n    }\r\n\r\n    function addToken(bytes32 ticker, address tokenAddress) external onlyAdmin {\r\n        tokens[ticker] = Token(ticker, tokenAddress);\r\n        tokenList.push(ticker);\r\n    }\r\n\r\n    function deposit(uint256 amount, bytes32 ticker) external tokenExist(ticker) {\r\n        IERC20(tokens[ticker].tokenAddress).transferFrom(msg.sender,address(this),amount);\r\n        traderBalances[msg.sender][ticker] = traderBalances[msg.sender][ticker].add(amount);\r\n    }\r\n\r\n    function withdraw(uint256 amount, bytes32 ticker) external tokenExist(ticker){\r\n        require(traderBalances[msg.sender][ticker] >= amount,\"Balance isn't enough to withdraw tokens.\");\r\n        traderBalances[msg.sender][ticker] = traderBalances[msg.sender][ticker].sub(amount);\r\n        IERC20(tokens[ticker].tokenAddress).transfer(msg.sender, amount);\r\n    }\r\n\r\n    function faucet(address recipient,uint256 amount,bytes32 ticker) external onlyAdmin {\r\n        IERC20(tokens[ticker].tokenAddress).transfer(recipient, amount);\r\n        traderBalances[recipient][ticker] = traderBalances[recipient][ticker].add(amount);\r\n    }\r\n\r\n    function createLimitOrder(bytes32 ticker,uint256 amount,uint256 price,Side side) external tokenExist(ticker) tokenIsNotFNX(ticker) {\r\n        if (side == Side.SELL) {\r\n            require(traderBalances[msg.sender][ticker] >= amount,\"Token balance is too low.\");\r\n        } else {\r\n            require(traderBalances[msg.sender][FNX] >= amount.mul(price),\"FNX balance is too low.\");\r\n        }\r\n\r\n        Order[] storage orders = orderBook[ticker][uint256(side)];\r\n        orders.push(\r\n            Order(\r\n                nextorderId,\r\n                msg.sender,\r\n                side,\r\n                ticker,\r\n                amount,\r\n                0,\r\n                price,\r\n                block.timestamp\r\n            )\r\n        );\r\n\r\n        uint256 i = orders.length > 0 ? orders.length - 1 : 0;\r\n        while (i > 0) {\r\n            if (side == Side.BUY && orders[i - 1].price > orders[i].price) {\r\n                break;\r\n            }\r\n            if (side == Side.SELL && orders[i - 1].price < orders[i].price) {\r\n                break;\r\n            }\r\n            Order memory order = orders[i - 1];\r\n            orders[i - 1] = orders[i];\r\n            orders[i] = order;\r\n            i = i.sub(1);\r\n        }\r\n        nextorderId = nextorderId.add(1);\r\n    }\r\n\r\n    function createMarketOrder(bytes32 ticker, uint256 amount, Side side) external tokenExist(ticker) tokenIsNotFNX(ticker) {\r\n        if (side == Side.SELL) {\r\n            require(traderBalances[msg.sender][ticker] >= amount, \"Token balance is too low.\");\r\n        }\r\n        Order[] storage orders = orderBook[ticker][uint256(side == Side.BUY ? Side.SELL : Side.BUY)];\r\n        uint256 i;\r\n        uint256 remaining = amount;\r\n\r\n        while (i < orders.length && remaining > 0) {\r\n            uint256 available = orders[i].amount.sub(orders[i].filled);\r\n            uint256 matched = (remaining > available) ? available : remaining;\r\n            remaining = remaining.sub(matched);\r\n            orders[i].filled = orders[i].filled.add(matched);\r\n            emit NewTrade(\r\n                nextTradeId,\r\n                orders[i].id,\r\n                ticker,\r\n                orders[i].trader,\r\n                msg.sender,\r\n                matched,\r\n                orders[i].price,\r\n                block.timestamp\r\n            );\r\n            if (side == Side.SELL) {\r\n                traderBalances[msg.sender][ticker] = traderBalances[msg.sender][ticker].sub(matched);\r\n                traderBalances[msg.sender][FNX] = traderBalances[msg.sender][FNX].add(matched.mul(orders[i].price));\r\n                traderBalances[orders[i].trader][ticker] = traderBalances[orders[i].trader][ticker].add(matched);\r\n                traderBalances[orders[i].trader][FNX] = traderBalances[orders[i].trader][FNX].sub(matched.mul(orders[i].price));\r\n            }\r\n            if (side == Side.BUY) {\r\n                require(traderBalances[msg.sender][FNX] >= matched.mul(orders[i].price), \"FNX balance is too low.\");\r\n                traderBalances[msg.sender][ticker] = traderBalances[msg.sender][ticker].add(matched);\r\n                traderBalances[msg.sender][FNX] = traderBalances[msg.sender][FNX].sub(matched.mul(orders[i].price));\r\n                traderBalances[orders[i].trader][ticker] = traderBalances[orders[i].trader][ticker].sub(matched);\r\n                traderBalances[orders[i].trader][FNX] = traderBalances[orders[i].trader][FNX].add(matched.mul(orders[i].price));\r\n            }\r\n            nextTradeId = nextTradeId.add(1);\r\n            i = i.add(1);\r\n        }\r\n\r\n        i = 0;\r\n        while (i < orders.length && orders[i].filled == orders[i].amount) {\r\n            for (uint256 j = i; j < orders.length - 1; j++) {\r\n                orders[j] = orders[j + 1];\r\n            }\r\n            orders.pop();\r\n            i = i.add(1);\r\n        }\r\n    }\r\n}\r\n\r\n",
  "sourcePath": "C:\\Users\\binod\\Desktop\\DecentralizedExchange\\Backend\\contracts\\DecentralizedExchange.sol",
  "compiler": {
    "name": "solc",
    "version": "0.8.18+commit.87f61d96.Emscripten.clang"
  },
  "schemaVersion": "3.4.12",
  "updatedAt": "2023-03-30T22:24:44.233Z",
  "networkType": "ethereum",
  "devdoc": {
    "kind": "dev",
    "methods": {},
    "version": 1
  },
  "userdoc": {
    "kind": "user",
    "methods": {},
    "version": 1
  }
}