{
  "contractName": "DecentralizedExchange",
  "abi": [
    {
      "inputs": [],
      "stateMutability": "nonpayable",
      "type": "constructor"
    },
    {
      "anonymous": false,
      "inputs": [
        {
          "indexed": false,
          "internalType": "uint256",
          "name": "tradeId",
          "type": "uint256"
        },
        {
          "indexed": false,
          "internalType": "uint256",
          "name": "orderId",
          "type": "uint256"
        },
        {
          "indexed": true,
          "internalType": "bytes32",
          "name": "ticker",
          "type": "bytes32"
        },
        {
          "indexed": true,
          "internalType": "address",
          "name": "trader1",
          "type": "address"
        },
        {
          "indexed": true,
          "internalType": "address",
          "name": "trader2",
          "type": "address"
        },
        {
          "indexed": false,
          "internalType": "uint256",
          "name": "amount",
          "type": "uint256"
        },
        {
          "indexed": false,
          "internalType": "uint256",
          "name": "price",
          "type": "uint256"
        },
        {
          "indexed": false,
          "internalType": "uint256",
          "name": "date",
          "type": "uint256"
        }
      ],
      "name": "NewTrade",
      "type": "event"
    },
    {
      "inputs": [],
      "name": "admin",
      "outputs": [
        {
          "internalType": "address",
          "name": "",
          "type": "address"
        }
      ],
      "stateMutability": "view",
      "type": "function"
    },
    {
      "inputs": [],
      "name": "nextTradeId",
      "outputs": [
        {
          "internalType": "uint256",
          "name": "",
          "type": "uint256"
        }
      ],
      "stateMutability": "view",
      "type": "function"
    },
    {
      "inputs": [],
      "name": "nextorderId",
      "outputs": [
        {
          "internalType": "uint256",
          "name": "",
          "type": "uint256"
        }
      ],
      "stateMutability": "view",
      "type": "function"
    },
    {
      "inputs": [
        {
          "internalType": "bytes32",
          "name": "",
          "type": "bytes32"
        },
        {
          "internalType": "uint256",
          "name": "",
          "type": "uint256"
        },
        {
          "internalType": "uint256",
          "name": "",
          "type": "uint256"
        }
      ],
      "name": "orderBook",
      "outputs": [
        {
          "internalType": "uint256",
          "name": "id",
          "type": "uint256"
        },
        {
          "internalType": "address",
          "name": "trader",
          "type": "address"
        },
        {
          "internalType": "enum DecentralizedExchange.Side",
          "name": "side",
          "type": "uint8"
        },
        {
          "internalType": "bytes32",
          "name": "ticker",
          "type": "bytes32"
        },
        {
          "internalType": "uint256",
          "name": "amount",
          "type": "uint256"
        },
        {
          "internalType": "uint256",
          "name": "filled",
          "type": "uint256"
        },
        {
          "internalType": "uint256",
          "name": "price",
          "type": "uint256"
        },
        {
          "internalType": "uint256",
          "name": "date",
          "type": "uint256"
        }
      ],
      "stateMutability": "view",
      "type": "function"
    },
    {
      "inputs": [
        {
          "internalType": "uint256",
          "name": "",
          "type": "uint256"
        }
      ],
      "name": "tokenList",
      "outputs": [
        {
          "internalType": "bytes32",
          "name": "",
          "type": "bytes32"
        }
      ],
      "stateMutability": "view",
      "type": "function"
    },
    {
      "inputs": [
        {
          "internalType": "bytes32",
          "name": "",
          "type": "bytes32"
        }
      ],
      "name": "tokens",
      "outputs": [
        {
          "internalType": "bytes32",
          "name": "ticker",
          "type": "bytes32"
        },
        {
          "internalType": "address",
          "name": "tokenAddress",
          "type": "address"
        }
      ],
      "stateMutability": "view",
      "type": "function"
    },
    {
      "inputs": [
        {
          "internalType": "address",
          "name": "",
          "type": "address"
        },
        {
          "internalType": "bytes32",
          "name": "",
          "type": "bytes32"
        }
      ],
      "name": "traderBalances",
      "outputs": [
        {
          "internalType": "uint256",
          "name": "",
          "type": "uint256"
        }
      ],
      "stateMutability": "view",
      "type": "function"
    },
    {
      "inputs": [
        {
          "internalType": "bytes32",
          "name": "ticker",
          "type": "bytes32"
        },
        {
          "internalType": "address",
          "name": "tokenAddress",
          "type": "address"
        }
      ],
      "name": "addToken",
      "outputs": [],
      "stateMutability": "nonpayable",
      "type": "function"
    },
    {
      "inputs": [
        {
          "internalType": "uint256",
          "name": "amount",
          "type": "uint256"
        },
        {
          "internalType": "bytes32",
          "name": "ticker",
          "type": "bytes32"
        }
      ],
      "name": "deposit",
      "outputs": [],
      "stateMutability": "nonpayable",
      "type": "function"
    },
    {
      "inputs": [
        {
          "internalType": "uint256",
          "name": "amount",
          "type": "uint256"
        },
        {
          "internalType": "bytes32",
          "name": "ticker",
          "type": "bytes32"
        }
      ],
      "name": "withdraw",
      "outputs": [],
      "stateMutability": "nonpayable",
      "type": "function"
    },
    {
      "inputs": [
        {
          "internalType": "address",
          "name": "recipient",
          "type": "address"
        },
        {
          "internalType": "uint256",
          "name": "amount",
          "type": "uint256"
        },
        {
          "internalType": "bytes32",
          "name": "ticker",
          "type": "bytes32"
        }
      ],
      "name": "faucet",
      "outputs": [],
      "stateMutability": "nonpayable",
      "type": "function"
    },
    {
      "inputs": [
        {
          "internalType": "bytes32",
          "name": "ticker",
          "type": "bytes32"
        },
        {
          "internalType": "uint256",
          "name": "amount",
          "type": "uint256"
        },
        {
          "internalType": "uint256",
          "name": "price",
          "type": "uint256"
        },
        {
          "internalType": "enum DecentralizedExchange.Side",
          "name": "side",
          "type": "uint8"
        }
      ],
      "name": "createLimitOrder",
      "outputs": [],
      "stateMutability": "nonpayable",
      "type": "function"
    },
    {
      "inputs": [
        {
          "internalType": "bytes32",
          "name": "ticker",
          "type": "bytes32"
        },
        {
          "internalType": "uint256",
          "name": "amount",
          "type": "uint256"
        },
        {
          "internalType": "enum DecentralizedExchange.Side",
          "name": "side",
          "type": "uint8"
        }
      ],
      "name": "createMarketOrder",
      "outputs": [],
      "stateMutability": "nonpayable",
      "type": "function"
    }
  ],
  "bytecode": "0x608060405234801561001057600080fd5b5033600460006101000a81548173ffffffffffffffffffffffffffffffffffffffff021916908373ffffffffffffffffffffffffffffffffffffffff160217905550613192806100616000396000f3fe608060405234801561001057600080fd5b50600436106100cf5760003560e01c80639a3799cb1161008c578063a8d2021a11610066578063a8d2021a1461022c578063c9630cb014610248578063d9c0c95014610264578063f851a44014610280576100cf565b80639a3799cb146101c25780639ead7222146101de578063a6ad22561461020e576100cf565b80630bb431b6146100d457806372ce957e1461010b5780637f2c62461461013b578063813ad08314610157578063904194a3146101755780639776aacf146101a6575b600080fd5b6100ee60048036038101906100e9919061276d565b61029e565b604051610102989796959493929190612896565b60405180910390f35b61012560048036038101906101209190612940565b61033d565b6040516101329190612980565b60405180910390f35b610155600480360381019061015091906129c0565b610362565b005b61015f611568565b60405161016c9190612980565b60405180910390f35b61018f600480360381019061018a9190612a13565b61156e565b60405161019d929190612a40565b60405180910390f35b6101c060048036038101906101bb9190612a69565b6115b2565b005b6101dc60048036038101906101d79190612aa9565b611700565b005b6101f860048036038101906101f39190612afc565b611900565b6040516102059190612b29565b60405180910390f35b610216611924565b6040516102239190612980565b60405180910390f35b61024660048036038101906102419190612b44565b61192a565b005b610262600480360381019061025d9190612b44565b611bd2565b005b61027e60048036038101906102799190612b84565b611de9565b005b610288612694565b6040516102959190612beb565b60405180910390f35b600260205282600052604060002060205281600052604060002081815481106102c657600080fd5b906000526020600020906007020160009250925050508060000154908060010160009054906101000a900473ffffffffffffffffffffffffffffffffffffffff16908060010160149054906101000a900460ff16908060020154908060030154908060040154908060050154908060060154905088565b6001602052816000526040600020602052806000526040600020600091509150505481565b82600073ffffffffffffffffffffffffffffffffffffffff1660008083815260200190815260200160002060010160009054906101000a900473ffffffffffffffffffffffffffffffffffffffff1673ffffffffffffffffffffffffffffffffffffffff1603610407576040517f08c379a00000000000000000000000000000000000000000000000000000000081526004016103fe90612c63565b60405180910390fd5b837f464e580000000000000000000000000000000000000000000000000000000000810361046a576040517f08c379a000000000000000000000000000000000000000000000000000000000815260040161046190612ccf565b60405180910390fd5b60018081111561047d5761047c612810565b5b8360018111156104905761048f612810565b5b036105295783600160003373ffffffffffffffffffffffffffffffffffffffff1673ffffffffffffffffffffffffffffffffffffffff1681526020019081526020016000206000878152602001908152602001600020541015610528576040517f08c379a000000000000000000000000000000000000000000000000000000000815260040161051f90612d3b565b60405180910390fd5b5b600060026000878152602001908152602001600020600080600181111561055357610552612810565b5b86600181111561056657610565612810565b5b14610572576000610575565b60015b600181111561058757610586612810565b5b815260200190815260200160002090506000808690505b8280549050821080156105b15750600081115b156112e75760006106138484815481106105ce576105cd612d5b565b5b9060005260206000209060070201600401548585815481106105f3576105f2612d5b565b5b9060005260206000209060070201600301546126ba90919063ffffffff16565b905060008183116106245782610626565b815b905061063b81846126ba90919063ffffffff16565b92506106748186868154811061065457610653612d5b565b5b9060005260206000209060070201600401546126d090919063ffffffff16565b85858154811061068757610686612d5b565b5b9060005260206000209060070201600401819055503373ffffffffffffffffffffffffffffffffffffffff168585815481106106c6576106c5612d5b565b5b906000526020600020906007020160010160009054906101000a900473ffffffffffffffffffffffffffffffffffffffff1673ffffffffffffffffffffffffffffffffffffffff168b7fdb0c486e680ba8026643e6a85f8d157b5e7bcd4b32b54d564542570a9eb2041660065489898154811061074657610745612d5b565b5b906000526020600020906007020160000154868b8b8154811061076c5761076b612d5b565b5b90600052602060002090600702016005015442604051610790959493929190612d8a565b60405180910390a46001808111156107ab576107aa612810565b5b8860018111156107be576107bd612810565b5b03610c9c5761082681600160003373ffffffffffffffffffffffffffffffffffffffff1673ffffffffffffffffffffffffffffffffffffffff16815260200190815260200160002060008d8152602001908152602001600020546126ba90919063ffffffff16565b600160003373ffffffffffffffffffffffffffffffffffffffff1673ffffffffffffffffffffffffffffffffffffffff16815260200190815260200160002060008c8152602001908152602001600020819055506109338585815481106108905761088f612d5b565b5b90600052602060002090600702016005015461092583600160003373ffffffffffffffffffffffffffffffffffffffff1673ffffffffffffffffffffffffffffffffffffffff16815260200190815260200160002060007f464e5800000000000000000000000000000000000000000000000000000000008152602001908152602001600020546126d090919063ffffffff16565b6126e690919063ffffffff16565b600160003373ffffffffffffffffffffffffffffffffffffffff1673ffffffffffffffffffffffffffffffffffffffff16815260200190815260200160002060007f464e580000000000000000000000000000000000000000000000000000000000815260200190815260200160002081905550610a4e81600160008888815481106109c2576109c1612d5b565b5b906000526020600020906007020160010160009054906101000a900473ffffffffffffffffffffffffffffffffffffffff1673ffffffffffffffffffffffffffffffffffffffff1673ffffffffffffffffffffffffffffffffffffffff16815260200190815260200160002060008d8152602001908152602001600020546126d090919063ffffffff16565b60016000878781548110610a6557610a64612d5b565b5b906000526020600020906007020160010160009054906101000a900473ffffffffffffffffffffffffffffffffffffffff1673ffffffffffffffffffffffffffffffffffffffff1673ffffffffffffffffffffffffffffffffffffffff16815260200190815260200160002060008c815260200190815260200160002081905550610be3858581548110610afc57610afb612d5b565b5b906000526020600020906007020160050154610bd583600160008a8a81548110610b2957610b28612d5b565b5b906000526020600020906007020160010160009054906101000a900473ffffffffffffffffffffffffffffffffffffffff1673ffffffffffffffffffffffffffffffffffffffff1673ffffffffffffffffffffffffffffffffffffffff16815260200190815260200160002060007f464e5800000000000000000000000000000000000000000000000000000000008152602001908152602001600020546126ba90919063ffffffff16565b6126e690919063ffffffff16565b60016000878781548110610bfa57610bf9612d5b565b5b906000526020600020906007020160010160009054906101000a900473ffffffffffffffffffffffffffffffffffffffff1673ffffffffffffffffffffffffffffffffffffffff1673ffffffffffffffffffffffffffffffffffffffff16815260200190815260200160002060007f464e5800000000000000000000000000000000000000000000000000000000008152602001908152602001600020819055505b60006001811115610cb057610caf612810565b5b886001811115610cc357610cc2612810565b5b036112ae57610cff858581548110610cde57610cdd612d5b565b5b906000526020600020906007020160050154826126e690919063ffffffff16565b600160003373ffffffffffffffffffffffffffffffffffffffff1673ffffffffffffffffffffffffffffffffffffffff16815260200190815260200160002060007f464e5800000000000000000000000000000000000000000000000000000000008152602001908152602001600020541015610db1576040517f08c379a0000000000000000000000000000000000000000000000000000000008152600401610da890612e29565b60405180910390fd5b610e1481600160003373ffffffffffffffffffffffffffffffffffffffff1673ffffffffffffffffffffffffffffffffffffffff16815260200190815260200160002060008d8152602001908152602001600020546126d090919063ffffffff16565b600160003373ffffffffffffffffffffffffffffffffffffffff1673ffffffffffffffffffffffffffffffffffffffff16815260200190815260200160002060008c815260200190815260200160002081905550610f45858581548110610e7e57610e7d612d5b565b5b906000526020600020906007020160050154610f3783600160008a8a81548110610eab57610eaa612d5b565b5b906000526020600020906007020160010160009054906101000a900473ffffffffffffffffffffffffffffffffffffffff1673ffffffffffffffffffffffffffffffffffffffff1673ffffffffffffffffffffffffffffffffffffffff16815260200190815260200160002060008f8152602001908152602001600020546126ba90919063ffffffff16565b6126e690919063ffffffff16565b600160003373ffffffffffffffffffffffffffffffffffffffff1673ffffffffffffffffffffffffffffffffffffffff16815260200190815260200160002060007f464e5800000000000000000000000000000000000000000000000000000000008152602001908152602001600020819055506110608160016000888881548110610fd457610fd3612d5b565b5b906000526020600020906007020160010160009054906101000a900473ffffffffffffffffffffffffffffffffffffffff1673ffffffffffffffffffffffffffffffffffffffff1673ffffffffffffffffffffffffffffffffffffffff16815260200190815260200160002060008d8152602001908152602001600020546126ba90919063ffffffff16565b6001600087878154811061107757611076612d5b565b5b906000526020600020906007020160010160009054906101000a900473ffffffffffffffffffffffffffffffffffffffff1673ffffffffffffffffffffffffffffffffffffffff1673ffffffffffffffffffffffffffffffffffffffff16815260200190815260200160002060008c8152602001908152602001600020819055506111f585858154811061110e5761110d612d5b565b5b9060005260206000209060070201600501546111e783600160008a8a8154811061113b5761113a612d5b565b5b906000526020600020906007020160010160009054906101000a900473ffffffffffffffffffffffffffffffffffffffff1673ffffffffffffffffffffffffffffffffffffffff1673ffffffffffffffffffffffffffffffffffffffff16815260200190815260200160002060007f464e5800000000000000000000000000000000000000000000000000000000008152602001908152602001600020546126d090919063ffffffff16565b6126e690919063ffffffff16565b6001600087878154811061120c5761120b612d5b565b5b906000526020600020906007020160010160009054906101000a900473ffffffffffffffffffffffffffffffffffffffff1673ffffffffffffffffffffffffffffffffffffffff1673ffffffffffffffffffffffffffffffffffffffff16815260200190815260200160002060007f464e5800000000000000000000000000000000000000000000000000000000008152602001908152602001600020819055505b6112c460016006546126d090919063ffffffff16565b6006819055506112de6001856126d090919063ffffffff16565b9350505061059e565b600091505b828054905082108015611346575082828154811061130d5761130c612d5b565b5b90600052602060002090600702016003015483838154811061133257611331612d5b565b5b906000526020600020906007020160040154145b1561155e5760008290505b600184805490506113629190612e78565b8110156114ad57836001826113779190612eac565b8154811061138857611387612d5b565b5b90600052602060002090600702018482815481106113a9576113a8612d5b565b5b9060005260206000209060070201600082015481600001556001820160009054906101000a900473ffffffffffffffffffffffffffffffffffffffff168160010160006101000a81548173ffffffffffffffffffffffffffffffffffffffff021916908373ffffffffffffffffffffffffffffffffffffffff1602179055506001820160149054906101000a900460ff168160010160146101000a81548160ff021916908360018111156114605761145f612810565b5b0217905550600282015481600201556003820154816003015560048201548160040155600582015481600501556006820154816006015590505080806114a590612ee0565b915050611351565b50828054806114bf576114be612f28565b5b60019003818190600052602060002090600702016000808201600090556001820160006101000a81549073ffffffffffffffffffffffffffffffffffffffff02191690556001820160146101000a81549060ff021916905560028201600090556003820160009055600482016000905560058201600090556006820160009055505090556115576001836126d090919063ffffffff16565b91506112ec565b5050505050505050565b60065481565b60006020528060005260406000206000915090508060000154908060010160009054906101000a900473ffffffffffffffffffffffffffffffffffffffff16905082565b600460009054906101000a900473ffffffffffffffffffffffffffffffffffffffff1673ffffffffffffffffffffffffffffffffffffffff163373ffffffffffffffffffffffffffffffffffffffff1614611642576040517f08c379a000000000000000000000000000000000000000000000000000000000815260040161163990612fa3565b60405180910390fd5b60405180604001604052808381526020018273ffffffffffffffffffffffffffffffffffffffff168152506000808481526020019081526020016000206000820151816000015560208201518160010160006101000a81548173ffffffffffffffffffffffffffffffffffffffff021916908373ffffffffffffffffffffffffffffffffffffffff16021790555090505060038290806001815401808255809150506001900390600052602060002001600090919091909150555050565b600460009054906101000a900473ffffffffffffffffffffffffffffffffffffffff1673ffffffffffffffffffffffffffffffffffffffff163373ffffffffffffffffffffffffffffffffffffffff1614611790576040517f08c379a000000000000000000000000000000000000000000000000000000000815260040161178790612fa3565b60405180910390fd5b60008082815260200190815260200160002060010160009054906101000a900473ffffffffffffffffffffffffffffffffffffffff1673ffffffffffffffffffffffffffffffffffffffff1663a9059cbb84846040518363ffffffff1660e01b8152600401611800929190612fc3565b6020604051808303816000875af115801561181f573d6000803e3d6000fd5b505050506040513d601f19601f820116820180604052508101906118439190613024565b506118a782600160008673ffffffffffffffffffffffffffffffffffffffff1673ffffffffffffffffffffffffffffffffffffffff1681526020019081526020016000206000848152602001908152602001600020546126d090919063ffffffff16565b600160008573ffffffffffffffffffffffffffffffffffffffff1673ffffffffffffffffffffffffffffffffffffffff168152602001908152602001600020600083815260200190815260200160002081905550505050565b6003818154811061191057600080fd5b906000526020600020016000915090505481565b60055481565b80600073ffffffffffffffffffffffffffffffffffffffff1660008083815260200190815260200160002060010160009054906101000a900473ffffffffffffffffffffffffffffffffffffffff1673ffffffffffffffffffffffffffffffffffffffff16036119cf576040517f08c379a00000000000000000000000000000000000000000000000000000000081526004016119c690612c63565b60405180910390fd5b82600160003373ffffffffffffffffffffffffffffffffffffffff1673ffffffffffffffffffffffffffffffffffffffff1681526020019081526020016000206000848152602001908152602001600020541015611a62576040517f08c379a0000000000000000000000000000000000000000000000000000000008152600401611a59906130c3565b60405180910390fd5b611ac583600160003373ffffffffffffffffffffffffffffffffffffffff1673ffffffffffffffffffffffffffffffffffffffff1681526020019081526020016000206000858152602001908152602001600020546126ba90919063ffffffff16565b600160003373ffffffffffffffffffffffffffffffffffffffff1673ffffffffffffffffffffffffffffffffffffffff16815260200190815260200160002060008481526020019081526020016000208190555060008083815260200190815260200160002060010160009054906101000a900473ffffffffffffffffffffffffffffffffffffffff1673ffffffffffffffffffffffffffffffffffffffff1663a9059cbb33856040518363ffffffff1660e01b8152600401611b89929190612fc3565b6020604051808303816000875af1158015611ba8573d6000803e3d6000fd5b505050506040513d601f19601f82011682018060405250810190611bcc9190613024565b50505050565b80600073ffffffffffffffffffffffffffffffffffffffff1660008083815260200190815260200160002060010160009054906101000a900473ffffffffffffffffffffffffffffffffffffffff1673ffffffffffffffffffffffffffffffffffffffff1603611c77576040517f08c379a0000000000000000000000000000000000000000000000000000000008152600401611c6e90612c63565b60405180910390fd5b60008083815260200190815260200160002060010160009054906101000a900473ffffffffffffffffffffffffffffffffffffffff1673ffffffffffffffffffffffffffffffffffffffff166323b872dd3330866040518463ffffffff1660e01b8152600401611ce9939291906130e3565b6020604051808303816000875af1158015611d08573d6000803e3d6000fd5b505050506040513d601f19601f82011682018060405250810190611d2c9190613024565b50611d9083600160003373ffffffffffffffffffffffffffffffffffffffff1673ffffffffffffffffffffffffffffffffffffffff1681526020019081526020016000206000858152602001908152602001600020546126d090919063ffffffff16565b600160003373ffffffffffffffffffffffffffffffffffffffff1673ffffffffffffffffffffffffffffffffffffffff168152602001908152602001600020600084815260200190815260200160002081905550505050565b83600073ffffffffffffffffffffffffffffffffffffffff1660008083815260200190815260200160002060010160009054906101000a900473ffffffffffffffffffffffffffffffffffffffff1673ffffffffffffffffffffffffffffffffffffffff1603611e8e576040517f08c379a0000000000000000000000000000000000000000000000000000000008152600401611e8590612c63565b60405180910390fd5b847f464e5800000000000000000000000000000000000000000000000000000000008103611ef1576040517f08c379a0000000000000000000000000000000000000000000000000000000008152600401611ee890612ccf565b60405180910390fd5b600180811115611f0457611f03612810565b5b836001811115611f1757611f16612810565b5b03611fb45784600160003373ffffffffffffffffffffffffffffffffffffffff1673ffffffffffffffffffffffffffffffffffffffff1681526020019081526020016000206000888152602001908152602001600020541015611faf576040517f08c379a0000000000000000000000000000000000000000000000000000000008152600401611fa690612d3b565b60405180910390fd5b61207a565b611fc784866126e690919063ffffffff16565b600160003373ffffffffffffffffffffffffffffffffffffffff1673ffffffffffffffffffffffffffffffffffffffff16815260200190815260200160002060007f464e5800000000000000000000000000000000000000000000000000000000008152602001908152602001600020541015612079576040517f08c379a000000000000000000000000000000000000000000000000000000000815260040161207090612e29565b60405180910390fd5b5b60006002600088815260200190815260200160002060008560018111156120a4576120a3612810565b5b815260200190815260200160002090508060405180610100016040528060055481526020013373ffffffffffffffffffffffffffffffffffffffff1681526020018660018111156120f8576120f7612810565b5b8152602001898152602001888152602001600081526020018781526020014281525090806001815401808255809150506001900390600052602060002090600702016000909190919091506000820151816000015560208201518160010160006101000a81548173ffffffffffffffffffffffffffffffffffffffff021916908373ffffffffffffffffffffffffffffffffffffffff16021790555060408201518160010160146101000a81548160ff021916908360018111156121bf576121be612810565b5b0217905550606082015181600201556080820151816003015560a0820151816004015560c0820151816005015560e08201518160060155505060008082805490501161220c57600061221e565b6001828054905061221d9190612e78565b5b90505b600081111561266e576000600181111561223e5761223d612810565b5b85600181111561225157612250612810565b5b1480156122b1575081818154811061226c5761226b612d5b565b5b9060005260206000209060070201600501548260018361228c9190612e78565b8154811061229d5761229c612d5b565b5b906000526020600020906007020160050154115b61266e576001808111156122c8576122c7612810565b5b8560018111156122db576122da612810565b5b14801561233b57508181815481106122f6576122f5612d5b565b5b906000526020600020906007020160050154826001836123169190612e78565b8154811061232757612326612d5b565b5b906000526020600020906007020160050154105b61266e5760008260018361234f9190612e78565b815481106123605761235f612d5b565b5b906000526020600020906007020160405180610100016040529081600082015481526020016001820160009054906101000a900473ffffffffffffffffffffffffffffffffffffffff1673ffffffffffffffffffffffffffffffffffffffff1673ffffffffffffffffffffffffffffffffffffffff1681526020016001820160149054906101000a900460ff1660018111156123ff576123fe612810565b5b600181111561241157612410612810565b5b815260200160028201548152602001600382015481526020016004820154815260200160058201548152602001600682015481525050905082828154811061245c5761245b612d5b565b5b9060005260206000209060070201836001846124789190612e78565b8154811061248957612488612d5b565b5b9060005260206000209060070201600082015481600001556001820160009054906101000a900473ffffffffffffffffffffffffffffffffffffffff168160010160006101000a81548173ffffffffffffffffffffffffffffffffffffffff021916908373ffffffffffffffffffffffffffffffffffffffff1602179055506001820160149054906101000a900460ff168160010160146101000a81548160ff021916908360018111156125405761253f612810565b5b021790555060028201548160020155600382015481600301556004820154816004015560058201548160050155600682015481600601559050508083838154811061258e5761258d612d5b565b5b90600052602060002090600702016000820151816000015560208201518160010160006101000a81548173ffffffffffffffffffffffffffffffffffffffff021916908373ffffffffffffffffffffffffffffffffffffffff16021790555060408201518160010160146101000a81548160ff0219169083600181111561261857612617612810565b5b0217905550606082015181600201556080820151816003015560a0820151816004015560c0820151816005015560e082015181600601559050506126666001836126ba90919063ffffffff16565b915050612221565b61268460016005546126d090919063ffffffff16565b6005819055505050505050505050565b600460009054906101000a900473ffffffffffffffffffffffffffffffffffffffff1681565b600081836126c89190612e78565b905092915050565b600081836126de9190612eac565b905092915050565b600081836126f4919061311a565b905092915050565b600080fd5b6000819050919050565b61271481612701565b811461271f57600080fd5b50565b6000813590506127318161270b565b92915050565b6000819050919050565b61274a81612737565b811461275557600080fd5b50565b60008135905061276781612741565b92915050565b600080600060608486031215612786576127856126fc565b5b600061279486828701612722565b93505060206127a586828701612758565b92505060406127b686828701612758565b9150509250925092565b6127c981612737565b82525050565b600073ffffffffffffffffffffffffffffffffffffffff82169050919050565b60006127fa826127cf565b9050919050565b61280a816127ef565b82525050565b7f4e487b7100000000000000000000000000000000000000000000000000000000600052602160045260246000fd5b600281106128505761284f612810565b5b50565b60008190506128618261283f565b919050565b600061287182612853565b9050919050565b61288181612866565b82525050565b61289081612701565b82525050565b6000610100820190506128ac600083018b6127c0565b6128b9602083018a612801565b6128c66040830189612878565b6128d36060830188612887565b6128e060808301876127c0565b6128ed60a08301866127c0565b6128fa60c08301856127c0565b61290760e08301846127c0565b9998505050505050505050565b61291d816127ef565b811461292857600080fd5b50565b60008135905061293a81612914565b92915050565b60008060408385031215612957576129566126fc565b5b60006129658582860161292b565b925050602061297685828601612722565b9150509250929050565b600060208201905061299560008301846127c0565b92915050565b600281106129a857600080fd5b50565b6000813590506129ba8161299b565b92915050565b6000806000606084860312156129d9576129d86126fc565b5b60006129e786828701612722565b93505060206129f886828701612758565b9250506040612a09868287016129ab565b9150509250925092565b600060208284031215612a2957612a286126fc565b5b6000612a3784828501612722565b91505092915050565b6000604082019050612a556000830185612887565b612a626020830184612801565b9392505050565b60008060408385031215612a8057612a7f6126fc565b5b6000612a8e85828601612722565b9250506020612a9f8582860161292b565b9150509250929050565b600080600060608486031215612ac257612ac16126fc565b5b6000612ad08682870161292b565b9350506020612ae186828701612758565b9250506040612af286828701612722565b9150509250925092565b600060208284031215612b1257612b116126fc565b5b6000612b2084828501612758565b91505092915050565b6000602082019050612b3e6000830184612887565b92915050565b60008060408385031215612b5b57612b5a6126fc565b5b6000612b6985828601612758565b9250506020612b7a85828601612722565b9150509250929050565b60008060008060808587031215612b9e57612b9d6126fc565b5b6000612bac87828801612722565b9450506020612bbd87828801612758565b9350506040612bce87828801612758565b9250506060612bdf878288016129ab565b91505092959194509250565b6000602082019050612c006000830184612801565b92915050565b600082825260208201905092915050565b7f5468697320746f6b656e20646f65736e27742065786973742e00000000000000600082015250565b6000612c4d601983612c06565b9150612c5882612c17565b602082019050919050565b60006020820190508181036000830152612c7c81612c40565b9050919050565b7f43616e6e6f7420747261646520464e582e000000000000000000000000000000600082015250565b6000612cb9601183612c06565b9150612cc482612c83565b602082019050919050565b60006020820190508181036000830152612ce881612cac565b9050919050565b7f546f6b656e2062616c616e636520697420746f6f206c6f772e00000000000000600082015250565b6000612d25601983612c06565b9150612d3082612cef565b602082019050919050565b60006020820190508181036000830152612d5481612d18565b9050919050565b7f4e487b7100000000000000000000000000000000000000000000000000000000600052603260045260246000fd5b600060a082019050612d9f60008301886127c0565b612dac60208301876127c0565b612db960408301866127c0565b612dc660608301856127c0565b612dd360808301846127c0565b9695505050505050565b7f464e582062616c616e636520697320746f6f206c6f772e000000000000000000600082015250565b6000612e13601783612c06565b9150612e1e82612ddd565b602082019050919050565b60006020820190508181036000830152612e4281612e06565b9050919050565b7f4e487b7100000000000000000000000000000000000000000000000000000000600052601160045260246000fd5b6000612e8382612737565b9150612e8e83612737565b9250828203905081811115612ea657612ea5612e49565b5b92915050565b6000612eb782612737565b9150612ec283612737565b9250828201905080821115612eda57612ed9612e49565b5b92915050565b6000612eeb82612737565b91507fffffffffffffffffffffffffffffffffffffffffffffffffffffffffffffffff8203612f1d57612f1c612e49565b5b600182019050919050565b7f4e487b7100000000000000000000000000000000000000000000000000000000600052603160045260246000fd5b7f4f6e6c792041646d696e6973747261746f7220697320616c6c6f7765642e0000600082015250565b6000612f8d601e83612c06565b9150612f9882612f57565b602082019050919050565b60006020820190508181036000830152612fbc81612f80565b9050919050565b6000604082019050612fd86000830185612801565b612fe560208301846127c0565b9392505050565b60008115159050919050565b61300181612fec565b811461300c57600080fd5b50565b60008151905061301e81612ff8565b92915050565b60006020828403121561303a576130396126fc565b5b60006130488482850161300f565b91505092915050565b7f42616c616e63652069736e277420656e6f75676820746f20576974686472617760008201527f20546f6b656e732e000000000000000000000000000000000000000000000000602082015250565b60006130ad602883612c06565b91506130b882613051565b604082019050919050565b600060208201905081810360008301526130dc816130a0565b9050919050565b60006060820190506130f86000830186612801565b6131056020830185612801565b61311260408301846127c0565b949350505050565b600061312582612737565b915061313083612737565b925082820261313e81612737565b9150828204841483151761315557613154612e49565b5b509291505056fea2646970667358221220a52cd33f90b07df2423c6c24fc9ceb3d3e8257cc11e752a2cdec58db72974cdb64736f6c63430008120033",
  "immutableReferences": {},
  "source": "// SPDX-License-Identifier: MIT\r\npragma solidity ^0.8.18;\r\n\r\nimport \"./SafeMath.sol\";\r\nimport \"./IERC20.sol\";\r\n\r\ncontract DecentralizedExchange {\r\n\r\n    using SafeMath for uint256;\r\n\r\n    enum Side { \r\n        BUY,\r\n        SELL \r\n    }\r\n\r\n    struct Token {\r\n        bytes32 ticker;\r\n        address tokenAddress;\r\n    }\r\n\r\n    struct Order {\r\n        uint256 id;\r\n        address trader;\r\n        Side side;\r\n        bytes32 ticker;\r\n        uint256 amount;\r\n        uint256 filled;\r\n        uint256 price;\r\n        uint256 date;\r\n    }\r\n\r\n    mapping(bytes32 => Token) public tokens;\r\n    mapping(address => mapping(bytes32 => uint256)) public traderBalances;\r\n    mapping(bytes32 => mapping(uint256 => Order[])) public orderBook;\r\n   \r\n    bytes32[] public tokenList;\r\n    address public admin;\r\n    uint256 public nextorderId;\r\n    uint256 public nextTradeId;\r\n    bytes32 constant FNX = bytes32(\"FNX\");\r\n\r\n    event NewTrade(\r\n        uint256 tradeId,\r\n        uint256 orderId,\r\n        bytes32 indexed ticker,\r\n        address indexed trader1,\r\n        address indexed trader2,\r\n        uint256 amount,\r\n        uint256 price,\r\n        uint256 date\r\n    );\r\n\r\n    constructor() {\r\n        admin = msg.sender;\r\n    }\r\n\r\n    function addToken(bytes32 ticker, address tokenAddress) external onlyAdmin {\r\n        tokens[ticker] = Token(ticker, tokenAddress);\r\n        tokenList.push(ticker);\r\n    }\r\n\r\n\r\n    modifier onlyAdmin() {\r\n        require(msg.sender == admin, \"Only Administrator is allowed.\");\r\n        _;\r\n    }\r\n    \r\n    modifier tokenIsNotFNX(bytes32 ticker) {\r\n        require(ticker != FNX, \"Cannot trade FNX.\");\r\n        _;\r\n    }\r\n\r\n    modifier tokenExist(bytes32 ticker) {\r\n        require(tokens[ticker].tokenAddress != address(0),\"This token doesn't exist.\");\r\n        _;\r\n    }\r\n\r\n    function deposit(uint256 amount, bytes32 ticker) external tokenExist(ticker) {\r\n        IERC20(tokens[ticker].tokenAddress).transferFrom(msg.sender,address(this),amount);\r\n        traderBalances[msg.sender][ticker] = traderBalances[msg.sender][ticker].add(amount);\r\n    }\r\n\r\n    function withdraw(uint256 amount, bytes32 ticker) external tokenExist(ticker){\r\n        require(traderBalances[msg.sender][ticker] >= amount,\"Balance isn't enough to Withdraw Tokens.\");\r\n        traderBalances[msg.sender][ticker] = traderBalances[msg.sender][ticker].sub(amount);\r\n        IERC20(tokens[ticker].tokenAddress).transfer(msg.sender, amount);\r\n    }\r\n\r\n    function faucet(address recipient,uint256 amount,bytes32 ticker) external onlyAdmin {\r\n        IERC20(tokens[ticker].tokenAddress).transfer(recipient, amount);\r\n        traderBalances[recipient][ticker] = traderBalances[recipient][ticker].add(amount);\r\n    }\r\n\r\n    function createLimitOrder(bytes32 ticker,uint256 amount,uint256 price,Side side) external tokenExist(ticker) tokenIsNotFNX(ticker) {\r\n        if (side == Side.SELL) {\r\n            require(traderBalances[msg.sender][ticker] >= amount,\"Token balance it too low.\");\r\n        } else {\r\n            require(traderBalances[msg.sender][FNX] >= amount.mul(price),\"FNX balance is too low.\");\r\n        }\r\n\r\n        Order[] storage orders = orderBook[ticker][uint256(side)];\r\n        orders.push(\r\n            Order(\r\n                nextorderId,\r\n                msg.sender,\r\n                side,\r\n                ticker,\r\n                amount,\r\n                0,\r\n                price,\r\n                block.timestamp\r\n            )\r\n        );\r\n\r\n        uint256 i = orders.length > 0 ? orders.length - 1 : 0;\r\n        while (i > 0) {\r\n            if (side == Side.BUY && orders[i - 1].price > orders[i].price) {\r\n                break;\r\n            }\r\n            if (side == Side.SELL && orders[i - 1].price < orders[i].price) {\r\n                break;\r\n            }\r\n            Order memory order = orders[i - 1];\r\n            orders[i - 1] = orders[i];\r\n            orders[i] = order;\r\n            i = i.sub(1);\r\n        }\r\n        nextorderId = nextorderId.add(1);\r\n    }\r\n\r\n    function createMarketOrder(bytes32 ticker,uint256 amount,Side side) external tokenExist(ticker) tokenIsNotFNX(ticker) {\r\n        if (side == Side.SELL) {\r\n            require(traderBalances[msg.sender][ticker] >= amount,\"Token balance it too low.\");\r\n        }\r\n        Order[] storage orders = orderBook[ticker][uint256(side == Side.BUY ? Side.SELL : Side.BUY)];\r\n        uint256 i;\r\n        uint256 remaining = amount;\r\n\r\n        while (i < orders.length && remaining > 0) {\r\n            uint256 available = orders[i].amount.sub(orders[i].filled);\r\n            uint256 matched = (remaining > available) ? available : remaining;\r\n            remaining = remaining.sub(matched);\r\n            orders[i].filled = orders[i].filled.add(matched);\r\n            emit NewTrade(\r\n                nextTradeId,\r\n                orders[i].id,\r\n                ticker,\r\n                orders[i].trader,\r\n                msg.sender,\r\n                matched,\r\n                orders[i].price,\r\n                block.timestamp\r\n            );\r\n            if (side == Side.SELL) {\r\n                traderBalances[msg.sender][ticker] = traderBalances[msg.sender][ticker].sub(matched);\r\n                traderBalances[msg.sender][FNX] = traderBalances[msg.sender][FNX].add(matched).mul(orders[i].price);\r\n                traderBalances[orders[i].trader][ticker] = traderBalances[orders[i].trader][ticker].add(matched);\r\n                traderBalances[orders[i].trader][FNX] = traderBalances[orders[i].trader][FNX].sub(matched).mul(orders[i].price);\r\n            }\r\n            if (side == Side.BUY) {\r\n                require(traderBalances[msg.sender][FNX] >=matched.mul(orders[i].price),\"FNX balance is too low.\");\r\n                traderBalances[msg.sender][ticker] = traderBalances[msg.sender][ticker].add(matched);\r\n                traderBalances[msg.sender][FNX] = traderBalances[orders[i].trader][ticker].sub(matched).mul(orders[i].price);\r\n                traderBalances[orders[i].trader][ticker] = traderBalances[orders[i].trader][ticker].sub(matched);\r\n                traderBalances[orders[i].trader][FNX] = traderBalances[orders[i].trader][FNX].add(matched).mul(orders[i].price);\r\n            }\r\n            nextTradeId = nextTradeId.add(1);\r\n            i = i.add(1);\r\n        }\r\n\r\n        i = 0;\r\n        while (i < orders.length && orders[i].filled == orders[i].amount) {\r\n            for (uint256 j = i; j < orders.length - 1; j++) {\r\n                orders[j] = orders[j + 1];\r\n            }\r\n            orders.pop();\r\n            i = i.add(1);\r\n        }\r\n    }\r\n}",
  "sourcePath": "C:\\Users\\binod\\Desktop\\DecentralizedExchange\\contracts\\DecentralizedExchange.sol",
  "compiler": {
    "name": "solc",
    "version": "0.8.18+commit.87f61d96.Emscripten.clang"
  },
  "schemaVersion": "3.4.12",
  "updatedAt": "2023-03-03T10:47:38.908Z",
  "devdoc": {
    "kind": "dev",
    "methods": {},
    "version": 1
  },
  "userdoc": {
    "kind": "user",
    "methods": {},
    "version": 1
  }
}